{
  "_format": "hh-sol-artifact-1",
  "contractName": "GiraffesAtTheBar",
  "sourceName": "contracts/GiraffesAtTheBar.sol",
  "abi": [
    {
      "inputs": [],
      "stateMutability": "nonpayable",
      "type": "constructor"
    },
    {
      "anonymous": false,
      "inputs": [
        {
          "indexed": true,
          "internalType": "address",
          "name": "owner",
          "type": "address"
        },
        {
          "indexed": true,
          "internalType": "address",
          "name": "approved",
          "type": "address"
        },
        {
          "indexed": true,
          "internalType": "uint256",
          "name": "tokenId",
          "type": "uint256"
        }
      ],
      "name": "Approval",
      "type": "event"
    },
    {
      "anonymous": false,
      "inputs": [
        {
          "indexed": true,
          "internalType": "address",
          "name": "owner",
          "type": "address"
        },
        {
          "indexed": true,
          "internalType": "address",
          "name": "operator",
          "type": "address"
        },
        {
          "indexed": false,
          "internalType": "bool",
          "name": "approved",
          "type": "bool"
        }
      ],
      "name": "ApprovalForAll",
      "type": "event"
    },
    {
      "anonymous": false,
      "inputs": [
        {
          "indexed": false,
          "internalType": "string",
          "name": "_licenseText",
          "type": "string"
        }
      ],
      "name": "LicenseLocked",
      "type": "event"
    },
    {
      "anonymous": false,
      "inputs": [
        {
          "indexed": true,
          "internalType": "address",
          "name": "previousOwner",
          "type": "address"
        },
        {
          "indexed": true,
          "internalType": "address",
          "name": "newOwner",
          "type": "address"
        }
      ],
      "name": "OwnershipTransferred",
      "type": "event"
    },
    {
      "anonymous": false,
      "inputs": [
        {
          "indexed": false,
          "internalType": "address",
          "name": "account",
          "type": "address"
        },
        {
          "indexed": false,
          "internalType": "uint256",
          "name": "shares",
          "type": "uint256"
        }
      ],
      "name": "PayeeAdded",
      "type": "event"
    },
    {
      "anonymous": false,
      "inputs": [
        {
          "indexed": false,
          "internalType": "address",
          "name": "from",
          "type": "address"
        },
        {
          "indexed": false,
          "internalType": "uint256",
          "name": "amount",
          "type": "uint256"
        }
      ],
      "name": "PaymentReceived",
      "type": "event"
    },
    {
      "anonymous": false,
      "inputs": [
        {
          "indexed": false,
          "internalType": "address",
          "name": "to",
          "type": "address"
        },
        {
          "indexed": false,
          "internalType": "uint256",
          "name": "amount",
          "type": "uint256"
        }
      ],
      "name": "PaymentReleased",
      "type": "event"
    },
    {
      "anonymous": false,
      "inputs": [
        {
          "indexed": true,
          "internalType": "address",
          "name": "from",
          "type": "address"
        },
        {
          "indexed": true,
          "internalType": "address",
          "name": "to",
          "type": "address"
        },
        {
          "indexed": true,
          "internalType": "uint256",
          "name": "tokenId",
          "type": "uint256"
        }
      ],
      "name": "Transfer",
      "type": "event"
    },
    {
      "inputs": [],
      "name": "GATB_PROVENANCE",
      "outputs": [
        {
          "internalType": "string",
          "name": "",
          "type": "string"
        }
      ],
      "stateMutability": "view",
      "type": "function"
    },
    {
      "inputs": [],
      "name": "LICENSE_TEXT",
      "outputs": [
        {
          "internalType": "string",
          "name": "",
          "type": "string"
        }
      ],
      "stateMutability": "view",
      "type": "function"
    },
    {
      "inputs": [],
      "name": "MAX_SUPPLY",
      "outputs": [
        {
          "internalType": "uint256",
          "name": "",
          "type": "uint256"
        }
      ],
      "stateMutability": "view",
      "type": "function"
    },
    {
      "inputs": [],
      "name": "RESERVED_SUPPLY",
      "outputs": [
        {
          "internalType": "uint256",
          "name": "",
          "type": "uint256"
        }
      ],
      "stateMutability": "view",
      "type": "function"
    },
    {
      "inputs": [
        {
          "internalType": "address[]",
          "name": "wallets",
          "type": "address[]"
        }
      ],
      "name": "addPresaleAddresses",
      "outputs": [],
      "stateMutability": "nonpayable",
      "type": "function"
    },
    {
      "inputs": [
        {
          "internalType": "address",
          "name": "to",
          "type": "address"
        },
        {
          "internalType": "uint256",
          "name": "tokenId",
          "type": "uint256"
        }
      ],
      "name": "approve",
      "outputs": [],
      "stateMutability": "nonpayable",
      "type": "function"
    },
    {
      "inputs": [
        {
          "internalType": "address",
          "name": "owner",
          "type": "address"
        }
      ],
      "name": "balanceOf",
      "outputs": [
        {
          "internalType": "uint256",
          "name": "",
          "type": "uint256"
        }
      ],
      "stateMutability": "view",
      "type": "function"
    },
    {
      "inputs": [
        {
          "internalType": "string",
          "name": "_license",
          "type": "string"
        }
      ],
      "name": "changeLicense",
      "outputs": [],
      "stateMutability": "nonpayable",
      "type": "function"
    },
    {
      "inputs": [],
      "name": "flipSaleState",
      "outputs": [],
      "stateMutability": "nonpayable",
      "type": "function"
    },
    {
      "inputs": [
        {
          "internalType": "uint256",
          "name": "tokenId",
          "type": "uint256"
        }
      ],
      "name": "getApproved",
      "outputs": [
        {
          "internalType": "address",
          "name": "",
          "type": "address"
        }
      ],
      "stateMutability": "view",
      "type": "function"
    },
    {
      "inputs": [
        {
          "internalType": "uint256",
          "name": "quantity",
          "type": "uint256"
        },
        {
          "internalType": "address",
          "name": "recipient",
          "type": "address"
        }
      ],
      "name": "gift",
      "outputs": [],
      "stateMutability": "nonpayable",
      "type": "function"
    },
    {
      "inputs": [
        {
          "internalType": "address",
          "name": "owner",
          "type": "address"
        },
        {
          "internalType": "address",
          "name": "operator",
          "type": "address"
        }
      ],
      "name": "isApprovedForAll",
      "outputs": [
        {
          "internalType": "bool",
          "name": "",
          "type": "bool"
        }
      ],
      "stateMutability": "view",
      "type": "function"
    },
    {
      "inputs": [],
      "name": "lockLicense",
      "outputs": [],
      "stateMutability": "nonpayable",
      "type": "function"
    },
    {
      "inputs": [
        {
          "internalType": "uint256",
          "name": "quantity",
          "type": "uint256"
        }
      ],
      "name": "mint",
      "outputs": [],
      "stateMutability": "payable",
      "type": "function"
    },
    {
      "inputs": [],
      "name": "name",
      "outputs": [
        {
          "internalType": "string",
          "name": "",
          "type": "string"
        }
      ],
      "stateMutability": "view",
      "type": "function"
    },
    {
      "inputs": [],
      "name": "owner",
      "outputs": [
        {
          "internalType": "address",
          "name": "",
          "type": "address"
        }
      ],
      "stateMutability": "view",
      "type": "function"
    },
    {
      "inputs": [
        {
          "internalType": "uint256",
          "name": "tokenId",
          "type": "uint256"
        }
      ],
      "name": "ownerOf",
      "outputs": [
        {
          "internalType": "address",
          "name": "",
          "type": "address"
        }
      ],
      "stateMutability": "view",
      "type": "function"
    },
    {
      "inputs": [],
      "name": "paused",
      "outputs": [
        {
          "internalType": "bool",
          "name": "",
          "type": "bool"
        }
      ],
      "stateMutability": "view",
      "type": "function"
    },
    {
      "inputs": [
        {
          "internalType": "uint256",
          "name": "index",
          "type": "uint256"
        }
      ],
      "name": "payee",
      "outputs": [
        {
          "internalType": "address",
          "name": "",
          "type": "address"
        }
      ],
      "stateMutability": "view",
      "type": "function"
    },
    {
      "inputs": [],
      "name": "presale_mint_max",
      "outputs": [
        {
          "internalType": "uint256",
          "name": "",
          "type": "uint256"
        }
      ],
      "stateMutability": "view",
      "type": "function"
    },
    {
      "inputs": [],
      "name": "presale_start",
      "outputs": [
        {
          "internalType": "uint256",
          "name": "",
          "type": "uint256"
        }
      ],
      "stateMutability": "view",
      "type": "function"
    },
    {
      "inputs": [],
      "name": "presale_supply",
      "outputs": [
        {
          "internalType": "uint256",
          "name": "",
          "type": "uint256"
        }
      ],
      "stateMutability": "view",
      "type": "function"
    },
    {
      "inputs": [],
      "name": "presale_wallet_max",
      "outputs": [
        {
          "internalType": "uint256",
          "name": "",
          "type": "uint256"
        }
      ],
      "stateMutability": "view",
      "type": "function"
    },
    {
      "inputs": [],
      "name": "price",
      "outputs": [
        {
          "internalType": "uint256",
          "name": "",
          "type": "uint256"
        }
      ],
      "stateMutability": "view",
      "type": "function"
    },
    {
      "inputs": [
        {
          "internalType": "address payable",
          "name": "account",
          "type": "address"
        }
      ],
      "name": "release",
      "outputs": [],
      "stateMutability": "nonpayable",
      "type": "function"
    },
    {
      "inputs": [
        {
          "internalType": "address",
          "name": "account",
          "type": "address"
        }
      ],
      "name": "released",
      "outputs": [
        {
          "internalType": "uint256",
          "name": "",
          "type": "uint256"
        }
      ],
      "stateMutability": "view",
      "type": "function"
    },
    {
      "inputs": [],
      "name": "renounceOwnership",
      "outputs": [],
      "stateMutability": "nonpayable",
      "type": "function"
    },
    {
      "inputs": [
        {
          "internalType": "address",
          "name": "from",
          "type": "address"
        },
        {
          "internalType": "address",
          "name": "to",
          "type": "address"
        },
        {
          "internalType": "uint256",
          "name": "tokenId",
          "type": "uint256"
        }
      ],
      "name": "safeTransferFrom",
      "outputs": [],
      "stateMutability": "nonpayable",
      "type": "function"
    },
    {
      "inputs": [
        {
          "internalType": "address",
          "name": "from",
          "type": "address"
        },
        {
          "internalType": "address",
          "name": "to",
          "type": "address"
        },
        {
          "internalType": "uint256",
          "name": "tokenId",
          "type": "uint256"
        },
        {
          "internalType": "bytes",
          "name": "_data",
          "type": "bytes"
        }
      ],
      "name": "safeTransferFrom",
      "outputs": [],
      "stateMutability": "nonpayable",
      "type": "function"
    },
    {
      "inputs": [],
      "name": "sale_mint_max",
      "outputs": [
        {
          "internalType": "uint256",
          "name": "",
          "type": "uint256"
        }
      ],
      "stateMutability": "view",
      "type": "function"
    },
    {
      "inputs": [],
      "name": "sale_start",
      "outputs": [
        {
          "internalType": "uint256",
          "name": "",
          "type": "uint256"
        }
      ],
      "stateMutability": "view",
      "type": "function"
    },
    {
      "inputs": [],
      "name": "sale_wallet_max",
      "outputs": [
        {
          "internalType": "uint256",
          "name": "",
          "type": "uint256"
        }
      ],
      "stateMutability": "view",
      "type": "function"
    },
    {
      "inputs": [
        {
          "internalType": "address",
          "name": "operator",
          "type": "address"
        },
        {
          "internalType": "bool",
          "name": "approved",
          "type": "bool"
        }
      ],
      "name": "setApprovalForAll",
      "outputs": [],
      "stateMutability": "nonpayable",
      "type": "function"
    },
    {
      "inputs": [
        {
          "internalType": "string",
          "name": "baseURI",
          "type": "string"
        }
      ],
      "name": "setBaseURI",
      "outputs": [],
      "stateMutability": "nonpayable",
      "type": "function"
    },
    {
      "inputs": [
        {
          "internalType": "uint256",
          "name": "maxSupply",
          "type": "uint256"
        }
      ],
      "name": "setMaxSupply",
      "outputs": [],
      "stateMutability": "nonpayable",
      "type": "function"
    },
    {
      "inputs": [
        {
          "internalType": "uint256",
          "name": "mint_max",
          "type": "uint256"
        },
        {
          "internalType": "uint256",
          "name": "start",
          "type": "uint256"
        },
        {
          "internalType": "uint256",
          "name": "wallet_max",
          "type": "uint256"
        },
        {
          "internalType": "uint256",
          "name": "supply",
          "type": "uint256"
        }
      ],
      "name": "setPresaleOptions",
      "outputs": [],
      "stateMutability": "nonpayable",
      "type": "function"
    },
    {
      "inputs": [
        {
          "internalType": "uint256",
          "name": "newPrice",
          "type": "uint256"
        }
      ],
      "name": "setPrice",
      "outputs": [],
      "stateMutability": "nonpayable",
      "type": "function"
    },
    {
      "inputs": [
        {
          "internalType": "string",
          "name": "provenanceHash",
          "type": "string"
        }
      ],
      "name": "setProvenanceHash",
      "outputs": [],
      "stateMutability": "nonpayable",
      "type": "function"
    },
    {
      "inputs": [
        {
          "internalType": "uint256",
          "name": "mint_max",
          "type": "uint256"
        },
        {
          "internalType": "uint256",
          "name": "start",
          "type": "uint256"
        },
        {
          "internalType": "uint256",
          "name": "wallet_max",
          "type": "uint256"
        }
      ],
      "name": "setSaleOptions",
      "outputs": [],
      "stateMutability": "nonpayable",
      "type": "function"
    },
    {
      "inputs": [
        {
          "internalType": "address",
          "name": "account",
          "type": "address"
        }
      ],
      "name": "shares",
      "outputs": [
        {
          "internalType": "uint256",
          "name": "",
          "type": "uint256"
        }
      ],
      "stateMutability": "view",
      "type": "function"
    },
    {
      "inputs": [
        {
          "internalType": "bytes4",
          "name": "interfaceId",
          "type": "bytes4"
        }
      ],
      "name": "supportsInterface",
      "outputs": [
        {
          "internalType": "bool",
          "name": "",
          "type": "bool"
        }
      ],
      "stateMutability": "view",
      "type": "function"
    },
    {
      "inputs": [],
      "name": "symbol",
      "outputs": [
        {
          "internalType": "string",
          "name": "",
          "type": "string"
        }
      ],
      "stateMutability": "view",
      "type": "function"
    },
    {
      "inputs": [
        {
          "internalType": "uint256",
          "name": "index",
          "type": "uint256"
        }
      ],
      "name": "tokenByIndex",
      "outputs": [
        {
          "internalType": "uint256",
          "name": "",
          "type": "uint256"
        }
      ],
      "stateMutability": "view",
      "type": "function"
    },
    {
      "inputs": [
        {
          "internalType": "uint256",
          "name": "_id",
          "type": "uint256"
        }
      ],
      "name": "tokenLicense",
      "outputs": [
        {
          "internalType": "string",
          "name": "",
          "type": "string"
        }
      ],
      "stateMutability": "view",
      "type": "function"
    },
    {
      "inputs": [
        {
          "internalType": "address",
          "name": "owner",
          "type": "address"
        },
        {
          "internalType": "uint256",
          "name": "index",
          "type": "uint256"
        }
      ],
      "name": "tokenOfOwnerByIndex",
      "outputs": [
        {
          "internalType": "uint256",
          "name": "",
          "type": "uint256"
        }
      ],
      "stateMutability": "view",
      "type": "function"
    },
    {
      "inputs": [
        {
          "internalType": "uint256",
          "name": "tokenId",
          "type": "uint256"
        }
      ],
      "name": "tokenURI",
      "outputs": [
        {
          "internalType": "string",
          "name": "",
          "type": "string"
        }
      ],
      "stateMutability": "view",
      "type": "function"
    },
    {
      "inputs": [],
      "name": "totalReleased",
      "outputs": [
        {
          "internalType": "uint256",
          "name": "",
          "type": "uint256"
        }
      ],
      "stateMutability": "view",
      "type": "function"
    },
    {
      "inputs": [],
      "name": "totalShares",
      "outputs": [
        {
          "internalType": "uint256",
          "name": "",
          "type": "uint256"
        }
      ],
      "stateMutability": "view",
      "type": "function"
    },
    {
      "inputs": [],
      "name": "totalSupply",
      "outputs": [
        {
          "internalType": "uint256",
          "name": "",
          "type": "uint256"
        }
      ],
      "stateMutability": "view",
      "type": "function"
    },
    {
      "inputs": [
        {
          "internalType": "address",
          "name": "from",
          "type": "address"
        },
        {
          "internalType": "address",
          "name": "to",
          "type": "address"
        },
        {
          "internalType": "uint256",
          "name": "tokenId",
          "type": "uint256"
        }
      ],
      "name": "transferFrom",
      "outputs": [],
      "stateMutability": "nonpayable",
      "type": "function"
    },
    {
      "inputs": [
        {
          "internalType": "address",
          "name": "newOwner",
          "type": "address"
        }
      ],
      "name": "transferOwnership",
      "outputs": [],
      "stateMutability": "nonpayable",
      "type": "function"
    },
    {
      "inputs": [
        {
          "internalType": "address",
          "name": "_owner",
          "type": "address"
        }
      ],
      "name": "walletOfOwner",
      "outputs": [
        {
          "internalType": "uint256[]",
          "name": "",
          "type": "uint256[]"
        }
      ],
      "stateMutability": "view",
      "type": "function"
    },
    {
      "stateMutability": "payable",
      "type": "receive"
    }
  ],
  "bytecode": "0x608060405260405180602001604052806000815250601090805190602001906200002b9291906200089c565b506040518060200160405280600081525060119080519060200190620000539291906200089c565b5061271060125560506013556001601460006101000a81548160ff02191690831515021790555066c3663566a58000601555600a6016556361393a656017556102bc6018556127106019556014601a55636143ddb0601b55612710601c5560405180606001604052806031815260200162006b1160319139601d9080519060200190620000e29291906200089c565b506000601e60006101000a81548160ff021916908315150217905550737f4ecce5310a5d33d2e9fcafedcde430249d1bc3602060006101000a81548173ffffffffffffffffffffffffffffffffffffffff021916908373ffffffffffffffffffffffffffffffffffffffff16021790555073da73c4dfa2f04b189a7f8eafb586501b4d0b73dc602160006101000a81548173ffffffffffffffffffffffffffffffffffffffff021916908373ffffffffffffffffffffffffffffffffffffffff1602179055506040518060400160405280602060009054906101000a900473ffffffffffffffffffffffffffffffffffffffff1673ffffffffffffffffffffffffffffffffffffffff1673ffffffffffffffffffffffffffffffffffffffff168152602001602160009054906101000a900473ffffffffffffffffffffffffffffffffffffffff1673ffffffffffffffffffffffffffffffffffffffff1673ffffffffffffffffffffffffffffffffffffffff1681525060229060026200026b9291906200092d565b506040518060400160405280605a60ff168152602001600a60ff1681525060239060026200029b929190620009bc565b50348015620002a957600080fd5b5060228054806020026020016040519081016040528092919081815260200182805480156200032e57602002820191906000526020600020905b8160009054906101000a900473ffffffffffffffffffffffffffffffffffffffff1673ffffffffffffffffffffffffffffffffffffffff1681526020019060010190808311620002e3575b505050505060238054806020026020016040519081016040528092919081815260200182805480156200038157602002820191906000526020600020905b8154815260200190600101908083116200036c575b50505050506040518060400160405280601381526020017f47697261666665732041742054686520426172000000000000000000000000008152506040518060400160405280600481526020017f474154420000000000000000000000000000000000000000000000000000000081525081600090805190602001906200040a9291906200089c565b508060019080519060200190620004239291906200089c565b505050620004466200043a6200059460201b60201c565b6200059c60201b60201c565b80518251146200048d576040517f08c379a0000000000000000000000000000000000000000000000000000000008152600401620004849062000c5f565b60405180910390fd5b6000825111620004d4576040517f08c379a0000000000000000000000000000000000000000000000000000000008152600401620004cb9062000ca3565b60405180910390fd5b60005b82518110156200058b57620005758382815181106200051f577f4e487b7100000000000000000000000000000000000000000000000000000000600052603260045260246000fd5b602002602001015183838151811062000561577f4e487b7100000000000000000000000000000000000000000000000000000000600052603260045260246000fd5b60200260200101516200066260201b60201c565b8080620005829062000dc9565b915050620004d7565b50505062000e75565b600033905090565b6000600a60009054906101000a900473ffffffffffffffffffffffffffffffffffffffff16905081600a60006101000a81548173ffffffffffffffffffffffffffffffffffffffff021916908373ffffffffffffffffffffffffffffffffffffffff1602179055508173ffffffffffffffffffffffffffffffffffffffff168173ffffffffffffffffffffffffffffffffffffffff167f8be0079c531659141344cd1fd0a4f28419497f9722a3daafe3b4186f6b6457e060405160405180910390a35050565b600073ffffffffffffffffffffffffffffffffffffffff168273ffffffffffffffffffffffffffffffffffffffff161415620006d5576040517f08c379a0000000000000000000000000000000000000000000000000000000008152600401620006cc9062000c3d565b60405180910390fd5b600081116200071b576040517f08c379a0000000000000000000000000000000000000000000000000000000008152600401620007129062000cc5565b60405180910390fd5b6000600d60008473ffffffffffffffffffffffffffffffffffffffff1673ffffffffffffffffffffffffffffffffffffffff1681526020019081526020016000205414620007a0576040517f08c379a0000000000000000000000000000000000000000000000000000000008152600401620007979062000c81565b60405180910390fd5b600f829080600181540180825580915050600190039060005260206000200160009091909190916101000a81548173ffffffffffffffffffffffffffffffffffffffff021916908373ffffffffffffffffffffffffffffffffffffffff16021790555080600d60008473ffffffffffffffffffffffffffffffffffffffff1673ffffffffffffffffffffffffffffffffffffffff1681526020019081526020016000208190555080600b5462000857919062000cf8565b600b819055507f40c340f65e17194d14ddddb073d3c9f888e3cb52b5aae0c6c7706b4fbc905fac82826040516200089092919062000c10565b60405180910390a15050565b828054620008aa9062000d93565b90600052602060002090601f016020900481019282620008ce57600085556200091a565b82601f10620008e957805160ff19168380011785556200091a565b828001600101855582156200091a579182015b8281111562000919578251825591602001919060010190620008fc565b5b50905062000929919062000a13565b5090565b828054828255906000526020600020908101928215620009a9579160200282015b82811115620009a85782518260006101000a81548173ffffffffffffffffffffffffffffffffffffffff021916908373ffffffffffffffffffffffffffffffffffffffff160217905550916020019190600101906200094e565b5b509050620009b8919062000a13565b5090565b82805482825590600052602060002090810192821562000a00579160200282015b82811115620009ff578251829060ff16905591602001919060010190620009dd565b5b50905062000a0f919062000a13565b5090565b5b8082111562000a2e57600081600090555060010162000a14565b5090565b62000a3d8162000d55565b82525050565b600062000a52602c8362000ce7565b91507f5061796d656e7453706c69747465723a206163636f756e74206973207468652060008301527f7a65726f206164647265737300000000000000000000000000000000000000006020830152604082019050919050565b600062000aba60328362000ce7565b91507f5061796d656e7453706c69747465723a2070617965657320616e64207368617260008301527f6573206c656e677468206d69736d6174636800000000000000000000000000006020830152604082019050919050565b600062000b22602b8362000ce7565b91507f5061796d656e7453706c69747465723a206163636f756e7420616c726561647960008301527f20686173207368617265730000000000000000000000000000000000000000006020830152604082019050919050565b600062000b8a601a8362000ce7565b91507f5061796d656e7453706c69747465723a206e6f207061796565730000000000006000830152602082019050919050565b600062000bcc601d8362000ce7565b91507f5061796d656e7453706c69747465723a207368617265732061726520300000006000830152602082019050919050565b62000c0a8162000d89565b82525050565b600060408201905062000c27600083018562000a32565b62000c36602083018462000bff565b9392505050565b6000602082019050818103600083015262000c588162000a43565b9050919050565b6000602082019050818103600083015262000c7a8162000aab565b9050919050565b6000602082019050818103600083015262000c9c8162000b13565b9050919050565b6000602082019050818103600083015262000cbe8162000b7b565b9050919050565b6000602082019050818103600083015262000ce08162000bbd565b9050919050565b600082825260208201905092915050565b600062000d058262000d89565b915062000d128362000d89565b9250827fffffffffffffffffffffffffffffffffffffffffffffffffffffffffffffffff0382111562000d4a5762000d4962000e17565b5b828201905092915050565b600062000d628262000d69565b9050919050565b600073ffffffffffffffffffffffffffffffffffffffff82169050919050565b6000819050919050565b6000600282049050600182168062000dac57607f821691505b6020821081141562000dc35762000dc262000e46565b5b50919050565b600062000dd68262000d89565b91507fffffffffffffffffffffffffffffffffffffffffffffffffffffffffffffffff82141562000e0c5762000e0b62000e17565b5b600182019050919050565b7f4e487b7100000000000000000000000000000000000000000000000000000000600052601160045260246000fd5b7f4e487b7100000000000000000000000000000000000000000000000000000000600052602260045260246000fd5b615c8c8062000e856000396000f3fe6080604052600436106103035760003560e01c806370a0823111610190578063b09904b5116100dc578063ce7c2ac211610095578063d9b137b21161006f578063d9b137b214610bbc578063e33b7de314610bf9578063e985e9c514610c24578063f2fde38b14610c615761034a565b8063ce7c2ac214610b2b578063d07b63c614610b68578063d3344ed314610b915761034a565b8063b09904b514610a31578063b45086eb14610a5a578063b88d4fde14610a85578063bc7a916314610aae578063bf4702fc14610ad7578063c87b56dd14610aee5761034a565b806391b7f5ed116101495780639c3e72bd116101235780639c3e72bd14610996578063a035b1fe146109c1578063a0712d68146109ec578063a22cb46514610a085761034a565b806391b7f5ed1461090557806395d89b411461092e5780639852595c146109595761034a565b806370a08231146107f5578063715018a614610832578063833de1d51461084957806383a076be146108745780638b83209b1461089d5780638da5cb5b146108da5761034a565b806331a53e9a1161024f578063438b63001161020857806355f804b3116101e257806355f804b31461073b5780635c975abb146107645780636352211e1461078f5780636f8b44b0146107cc5761034a565b8063438b630014610696578063445a3771146106d35780634f6ccce7146106fe5761034a565b806331a53e9a146105ac57806332cb6b0c146105d757806334918dfd146106025780633819fc0f146106195780633a98ef391461064257806342842e0e1461066d5761034a565b806319165587116102bc5780632a146986116102965780632a146986146104ee5780632e5c0fe7146105195780632f745c5914610544578063319a3fbd146105815761034a565b8063191655871461047157806323b872dd1461049a57806324eedd4c146104c35761034a565b806301ffc9a71461034f57806306fdde031461038c578063081812fc146103b7578063095ea7b3146103f4578063109695231461041d57806318160ddd146104465761034a565b3661034a577f6ef95f06320e7a25a04a175ca677b7052bdd97131872c2192525a629f51be770610331610c8a565b34604051610340929190615219565b60405180910390a1005b600080fd5b34801561035b57600080fd5b50610376600480360381019061037191906141cc565b610c92565b6040516103839190615264565b60405180910390f35b34801561039857600080fd5b506103a1610d0c565b6040516103ae919061527f565b60405180910390f35b3480156103c357600080fd5b506103de60048036038101906103d9919061425f565b610d9e565b6040516103eb9190615189565b60405180910390f35b34801561040057600080fd5b5061041b6004803603810190610416919061414f565b610e23565b005b34801561042957600080fd5b50610444600480360381019061043f919061421e565b610f3b565b005b34801561045257600080fd5b5061045b610fd1565b60405161046891906156e3565b60405180910390f35b34801561047d57600080fd5b5061049860048036038101906104939190613fe4565b610fde565b005b3480156104a657600080fd5b506104c160048036038101906104bc9190614049565b611246565b005b3480156104cf57600080fd5b506104d86112a6565b6040516104e591906156e3565b60405180910390f35b3480156104fa57600080fd5b506105036112ac565b60405161051091906156e3565b60405180910390f35b34801561052557600080fd5b5061052e6112b2565b60405161053b91906156e3565b60405180910390f35b34801561055057600080fd5b5061056b6004803603810190610566919061414f565b6112b8565b60405161057891906156e3565b60405180910390f35b34801561058d57600080fd5b5061059661135d565b6040516105a391906156e3565b60405180910390f35b3480156105b857600080fd5b506105c1611363565b6040516105ce91906156e3565b60405180910390f35b3480156105e357600080fd5b506105ec611369565b6040516105f991906156e3565b60405180910390f35b34801561060e57600080fd5b5061061761136f565b005b34801561062557600080fd5b50610640600480360381019061063b919061418b565b611417565b005b34801561064e57600080fd5b50610657611539565b60405161066491906156e3565b60405180910390f35b34801561067957600080fd5b50610694600480360381019061068f9190614049565b611543565b005b3480156106a257600080fd5b506106bd60048036038101906106b89190613fbb565b611563565b6040516106ca9190615242565b60405180910390f35b3480156106df57600080fd5b506106e861165d565b6040516106f591906156e3565b60405180910390f35b34801561070a57600080fd5b506107256004803603810190610720919061425f565b611663565b60405161073291906156e3565b60405180910390f35b34801561074757600080fd5b50610762600480360381019061075d919061421e565b6116fa565b005b34801561077057600080fd5b50610779611790565b6040516107869190615264565b60405180910390f35b34801561079b57600080fd5b506107b660048036038101906107b1919061425f565b6117a3565b6040516107c39190615189565b60405180910390f35b3480156107d857600080fd5b506107f360048036038101906107ee919061425f565b611855565b005b34801561080157600080fd5b5061081c60048036038101906108179190613fbb565b611924565b60405161082991906156e3565b60405180910390f35b34801561083e57600080fd5b506108476119dc565b005b34801561085557600080fd5b5061085e611a64565b60405161086b91906156e3565b60405180910390f35b34801561088057600080fd5b5061089b60048036038101906108969190614288565b611a6a565b005b3480156108a957600080fd5b506108c460048036038101906108bf919061425f565b611b79565b6040516108d19190615189565b60405180910390f35b3480156108e657600080fd5b506108ef611be7565b6040516108fc9190615189565b60405180910390f35b34801561091157600080fd5b5061092c6004803603810190610927919061425f565b611c11565b005b34801561093a57600080fd5b50610943611c97565b604051610950919061527f565b60405180910390f35b34801561096557600080fd5b50610980600480360381019061097b9190613fbb565b611d29565b60405161098d91906156e3565b60405180910390f35b3480156109a257600080fd5b506109ab611d72565b6040516109b8919061527f565b60405180910390f35b3480156109cd57600080fd5b506109d6611e00565b6040516109e391906156e3565b60405180910390f35b610a066004803603810190610a01919061425f565b611e06565b005b348015610a1457600080fd5b50610a2f6004803603810190610a2a9190614113565b6121a3565b005b348015610a3d57600080fd5b50610a586004803603810190610a53919061421e565b612324565b005b348015610a6657600080fd5b50610a6f612410565b604051610a7c919061527f565b60405180910390f35b348015610a9157600080fd5b50610aac6004803603810190610aa79190614098565b61249e565b005b348015610aba57600080fd5b50610ad56004803603810190610ad09190614313565b612500565b005b348015610ae357600080fd5b50610aec612655565b005b348015610afa57600080fd5b50610b156004803603810190610b10919061425f565b612726565b604051610b22919061527f565b60405180910390f35b348015610b3757600080fd5b50610b526004803603810190610b4d9190613fbb565b6127ce565b604051610b5f91906156e3565b60405180910390f35b348015610b7457600080fd5b50610b8f6004803603810190610b8a91906142c4565b612817565b005b348015610b9d57600080fd5b50610ba66128cb565b604051610bb391906156e3565b60405180910390f35b348015610bc857600080fd5b50610be36004803603810190610bde919061425f565b6128d1565b604051610bf0919061527f565b60405180910390f35b348015610c0557600080fd5b50610c0e6129ae565b604051610c1b91906156e3565b60405180910390f35b348015610c3057600080fd5b50610c4b6004803603810190610c46919061400d565b6129b8565b604051610c589190615264565b60405180910390f35b348015610c6d57600080fd5b50610c886004803603810190610c839190613fbb565b612a4c565b005b600033905090565b60007f780e9d63000000000000000000000000000000000000000000000000000000007bffffffffffffffffffffffffffffffffffffffffffffffffffffffff1916827bffffffffffffffffffffffffffffffffffffffffffffffffffffffff19161480610d055750610d0482612b44565b5b9050919050565b606060008054610d1b90615a6a565b80601f0160208091040260200160405190810160405280929190818152602001828054610d4790615a6a565b8015610d945780601f10610d6957610100808354040283529160200191610d94565b820191906000526020600020905b815481529060010190602001808311610d7757829003601f168201915b5050505050905090565b6000610da982612c26565b610de8576040517f08c379a0000000000000000000000000000000000000000000000000000000008152600401610ddf906155a3565b60405180910390fd5b6004600083815260200190815260200160002060009054906101000a900473ffffffffffffffffffffffffffffffffffffffff169050919050565b6000610e2e826117a3565b90508073ffffffffffffffffffffffffffffffffffffffff168373ffffffffffffffffffffffffffffffffffffffff161415610e9f576040517f08c379a0000000000000000000000000000000000000000000000000000000008152600401610e9690615623565b60405180910390fd5b8073ffffffffffffffffffffffffffffffffffffffff16610ebe610c8a565b73ffffffffffffffffffffffffffffffffffffffff161480610eed5750610eec81610ee7610c8a565b6129b8565b5b610f2c576040517f08c379a0000000000000000000000000000000000000000000000000000000008152600401610f23906154c3565b60405180910390fd5b610f368383612c92565b505050565b610f43610c8a565b73ffffffffffffffffffffffffffffffffffffffff16610f61611be7565b73ffffffffffffffffffffffffffffffffffffffff1614610fb7576040517f08c379a0000000000000000000000000000000000000000000000000000000008152600401610fae906155c3565b60405180910390fd5b8060109080519060200190610fcd929190613d34565b5050565b6000600880549050905090565b6000600d60008373ffffffffffffffffffffffffffffffffffffffff1673ffffffffffffffffffffffffffffffffffffffff1681526020019081526020016000205411611060576040517f08c379a0000000000000000000000000000000000000000000000000000000008152600401611057906153a3565b60405180910390fd5b6000600c54476110709190615857565b90506000600e60008473ffffffffffffffffffffffffffffffffffffffff1673ffffffffffffffffffffffffffffffffffffffff16815260200190815260200160002054600b54600d60008673ffffffffffffffffffffffffffffffffffffffff1673ffffffffffffffffffffffffffffffffffffffff168152602001908152602001600020548461110291906158de565b61110c91906158ad565b6111169190615938565b9050600081141561115c576040517f08c379a000000000000000000000000000000000000000000000000000000000815260040161115390615483565b60405180910390fd5b80600e60008573ffffffffffffffffffffffffffffffffffffffff1673ffffffffffffffffffffffffffffffffffffffff168152602001908152602001600020546111a79190615857565b600e60008573ffffffffffffffffffffffffffffffffffffffff1673ffffffffffffffffffffffffffffffffffffffff1681526020019081526020016000208190555080600c546111f89190615857565b600c819055506112088382612d4b565b7fdf20fd1e76bc69d672e4814fafb2c449bba3a5369d8359adf9e05e6fde87b05683826040516112399291906151a4565b60405180910390a1505050565b611257611251610c8a565b82612e3f565b611296576040517f08c379a000000000000000000000000000000000000000000000000000000000815260040161128d906156a3565b60405180910390fd5b6112a1838383612f1d565b505050565b60185481565b601a5481565b601b5481565b60006112c383611924565b8210611304576040517f08c379a00000000000000000000000000000000000000000000000000000000081526004016112fb90615323565b60405180910390fd5b600660008473ffffffffffffffffffffffffffffffffffffffff1673ffffffffffffffffffffffffffffffffffffffff168152602001908152602001600020600083815260200190815260200160002054905092915050565b601c5481565b60135481565b60125481565b611377610c8a565b73ffffffffffffffffffffffffffffffffffffffff16611395611be7565b73ffffffffffffffffffffffffffffffffffffffff16146113eb576040517f08c379a00000000000000000000000000000000000000000000000000000000081526004016113e2906155c3565b60405180910390fd5b601460009054906101000a900460ff1615601460006101000a81548160ff021916908315150217905550565b61141f610c8a565b73ffffffffffffffffffffffffffffffffffffffff1661143d611be7565b73ffffffffffffffffffffffffffffffffffffffff1614611493576040517f08c379a000000000000000000000000000000000000000000000000000000000815260040161148a906155c3565b60405180910390fd5b60005b8151811015611535576001601f60008484815181106114de577f4e487b7100000000000000000000000000000000000000000000000000000000600052603260045260246000fd5b602002602001015173ffffffffffffffffffffffffffffffffffffffff1673ffffffffffffffffffffffffffffffffffffffff168152602001908152602001600020819055508061152e90615a9c565b9050611496565b5050565b6000600b54905090565b61155e8383836040518060200160405280600081525061249e565b505050565b6060600061157083611924565b905060008167ffffffffffffffff8111156115b4577f4e487b7100000000000000000000000000000000000000000000000000000000600052604160045260246000fd5b6040519080825280602002602001820160405280156115e25781602001602082028036833780820191505090505b50905060005b82811015611652576115fa85826112b8565b828281518110611633577f4e487b7100000000000000000000000000000000000000000000000000000000600052603260045260246000fd5b602002602001018181525050808061164a90615a9c565b9150506115e8565b508092505050919050565b60175481565b600061166d610fd1565b82106116ae576040517f08c379a00000000000000000000000000000000000000000000000000000000081526004016116a5906156c3565b60405180910390fd5b600882815481106116e8577f4e487b7100000000000000000000000000000000000000000000000000000000600052603260045260246000fd5b90600052602060002001549050919050565b611702610c8a565b73ffffffffffffffffffffffffffffffffffffffff16611720611be7565b73ffffffffffffffffffffffffffffffffffffffff1614611776576040517f08c379a000000000000000000000000000000000000000000000000000000000815260040161176d906155c3565b60405180910390fd5b80601d908051906020019061178c929190613d34565b5050565b601460009054906101000a900460ff1681565b6000806002600084815260200190815260200160002060009054906101000a900473ffffffffffffffffffffffffffffffffffffffff169050600073ffffffffffffffffffffffffffffffffffffffff168173ffffffffffffffffffffffffffffffffffffffff16141561184c576040517f08c379a000000000000000000000000000000000000000000000000000000000815260040161184390615503565b60405180910390fd5b80915050919050565b61185d610c8a565b73ffffffffffffffffffffffffffffffffffffffff1661187b611be7565b73ffffffffffffffffffffffffffffffffffffffff16146118d1576040517f08c379a00000000000000000000000000000000000000000000000000000000081526004016118c8906155c3565b60405180910390fd5b6118d9610fd1565b811161191a576040517f08c379a0000000000000000000000000000000000000000000000000000000008152600401611911906153c3565b60405180910390fd5b8060128190555050565b60008073ffffffffffffffffffffffffffffffffffffffff168273ffffffffffffffffffffffffffffffffffffffff161415611995576040517f08c379a000000000000000000000000000000000000000000000000000000000815260040161198c906154e3565b60405180910390fd5b600360008373ffffffffffffffffffffffffffffffffffffffff1673ffffffffffffffffffffffffffffffffffffffff168152602001908152602001600020549050919050565b6119e4610c8a565b73ffffffffffffffffffffffffffffffffffffffff16611a02611be7565b73ffffffffffffffffffffffffffffffffffffffff1614611a58576040517f08c379a0000000000000000000000000000000000000000000000000000000008152600401611a4f906155c3565b60405180910390fd5b611a626000613179565b565b60165481565b611a72610c8a565b73ffffffffffffffffffffffffffffffffffffffff16611a90611be7565b73ffffffffffffffffffffffffffffffffffffffff1614611ae6576040517f08c379a0000000000000000000000000000000000000000000000000000000008152600401611add906155c3565b60405180910390fd5b6000611af0610fd1565b90506012548382611b019190615857565b1115611b42576040517f08c379a0000000000000000000000000000000000000000000000000000000008152600401611b39906152c3565b60405180910390fd5b60005b83811015611b7357611b62838284611b5d9190615857565b61323f565b80611b6c90615a9c565b9050611b45565b50505050565b6000600f8281548110611bb5577f4e487b7100000000000000000000000000000000000000000000000000000000600052603260045260246000fd5b9060005260206000200160009054906101000a900473ffffffffffffffffffffffffffffffffffffffff169050919050565b6000600a60009054906101000a900473ffffffffffffffffffffffffffffffffffffffff16905090565b611c19610c8a565b73ffffffffffffffffffffffffffffffffffffffff16611c37611be7565b73ffffffffffffffffffffffffffffffffffffffff1614611c8d576040517f08c379a0000000000000000000000000000000000000000000000000000000008152600401611c84906155c3565b60405180910390fd5b8060158190555050565b606060018054611ca690615a6a565b80601f0160208091040260200160405190810160405280929190818152602001828054611cd290615a6a565b8015611d1f5780601f10611cf457610100808354040283529160200191611d1f565b820191906000526020600020905b815481529060010190602001808311611d0257829003601f168201915b5050505050905090565b6000600e60008373ffffffffffffffffffffffffffffffffffffffff1673ffffffffffffffffffffffffffffffffffffffff168152602001908152602001600020549050919050565b60118054611d7f90615a6a565b80601f0160208091040260200160405190810160405280929190818152602001828054611dab90615a6a565b8015611df85780601f10611dcd57610100808354040283529160200191611df8565b820191906000526020600020905b815481529060010190602001808311611ddb57829003601f168201915b505050505081565b60155481565b601460009054906101000a900460ff1615611e56576040517f08c379a0000000000000000000000000000000000000000000000000000000008152600401611e4d906152e3565b60405180910390fd5b80601554611e6491906158de565b341015611ea6576040517f08c379a0000000000000000000000000000000000000000000000000000000008152600401611e9d90615663565b60405180910390fd5b6000611eb0610fd1565b9050601b544210611fad57601a54821115611f00576040517f08c379a0000000000000000000000000000000000000000000000000000000008152600401611ef790615523565b60405180910390fd5b6012548282611f0f9190615857565b1115611f50576040517f08c379a0000000000000000000000000000000000000000000000000000000008152600401611f47906152c3565b60405180910390fd5b601c5482611f5d33611924565b611f679190615857565b1115611fa8576040517f08c379a0000000000000000000000000000000000000000000000000000000008152600401611f9f90615543565b60405180910390fd5b61216d565b601754421061212a57601654821115611ffb576040517f08c379a0000000000000000000000000000000000000000000000000000000008152600401611ff290615523565b60405180910390fd5b601854828261200a9190615857565b111561204b576040517f08c379a0000000000000000000000000000000000000000000000000000000008152600401612042906152c3565b60405180910390fd5b6001601f60003373ffffffffffffffffffffffffffffffffffffffff1673ffffffffffffffffffffffffffffffffffffffff16815260200190815260200160002054146120cd576040517f08c379a00000000000000000000000000000000000000000000000000000000081526004016120c490615643565b60405180910390fd5b601954826120da33611924565b6120e49190615857565b1115612125576040517f08c379a000000000000000000000000000000000000000000000000000000000815260040161211c90615543565b60405180910390fd5b61216c565b600061216b576040517f08c379a000000000000000000000000000000000000000000000000000000000815260040161216290615303565b60405180910390fd5b5b5b60005b8281101561219e5761218d3382846121889190615857565b61323f565b8061219790615a9c565b9050612170565b505050565b6121ab610c8a565b73ffffffffffffffffffffffffffffffffffffffff168273ffffffffffffffffffffffffffffffffffffffff161415612219576040517f08c379a000000000000000000000000000000000000000000000000000000000815260040161221090615403565b60405180910390fd5b8060056000612226610c8a565b73ffffffffffffffffffffffffffffffffffffffff1673ffffffffffffffffffffffffffffffffffffffff16815260200190815260200160002060008473ffffffffffffffffffffffffffffffffffffffff1673ffffffffffffffffffffffffffffffffffffffff16815260200190815260200160002060006101000a81548160ff0219169083151502179055508173ffffffffffffffffffffffffffffffffffffffff166122d3610c8a565b73ffffffffffffffffffffffffffffffffffffffff167f17307eab39ab6107e8899845ad3d59bd9653f200f220920489ca2b5937696c31836040516123189190615264565b60405180910390a35050565b61232c610c8a565b73ffffffffffffffffffffffffffffffffffffffff1661234a611be7565b73ffffffffffffffffffffffffffffffffffffffff16146123a0576040517f08c379a0000000000000000000000000000000000000000000000000000000008152600401612397906155c3565b60405180910390fd5b60001515601e60009054906101000a900460ff161515146123f6576040517f08c379a00000000000000000000000000000000000000000000000000000000081526004016123ed90615683565b60405180910390fd5b806011908051906020019061240c929190613d34565b5050565b6010805461241d90615a6a565b80601f016020809104026020016040519081016040528092919081815260200182805461244990615a6a565b80156124965780601f1061246b57610100808354040283529160200191612496565b820191906000526020600020905b81548152906001019060200180831161247957829003601f168201915b505050505081565b6124af6124a9610c8a565b83612e3f565b6124ee576040517f08c379a00000000000000000000000000000000000000000000000000000000081526004016124e5906156a3565b60405180910390fd5b6124fa8484848461325d565b50505050565b612508610c8a565b73ffffffffffffffffffffffffffffffffffffffff16612526611be7565b73ffffffffffffffffffffffffffffffffffffffff161461257c576040517f08c379a0000000000000000000000000000000000000000000000000000000008152600401612573906155c3565b60405180910390fd5b612584610fd1565b8110156125c6576040517f08c379a00000000000000000000000000000000000000000000000000000000081526004016125bd906153c3565b60405180910390fd5b60125481111561260b576040517f08c379a0000000000000000000000000000000000000000000000000000000008152600401612602906154a3565b60405180910390fd5b836016541461261c57836016819055505b826017541461262d57826017819055505b816016541461263e57816019819055505b806018541461264f57806018819055505b50505050565b61265d610c8a565b73ffffffffffffffffffffffffffffffffffffffff1661267b611be7565b73ffffffffffffffffffffffffffffffffffffffff16146126d1576040517f08c379a00000000000000000000000000000000000000000000000000000000081526004016126c8906155c3565b60405180910390fd5b6001601e60006101000a81548160ff0219169083151502179055507fd0aa4d8e7b0215933778f41575f8ad2175172a023ede476fc2724a38357dc674601160405161271c91906152a1565b60405180910390a1565b606061273182612c26565b612770576040517f08c379a000000000000000000000000000000000000000000000000000000000815260040161276790615603565b60405180910390fd5b6000601d805461277f90615a6a565b90501161279b57604051806020016040528060008152506127c7565b601d6127a6836132b9565b6040516020016127b7929190615145565b6040516020818303038152906040525b9050919050565b6000600d60008373ffffffffffffffffffffffffffffffffffffffff1673ffffffffffffffffffffffffffffffffffffffff168152602001908152602001600020549050919050565b61281f610c8a565b73ffffffffffffffffffffffffffffffffffffffff1661283d611be7565b73ffffffffffffffffffffffffffffffffffffffff1614612893576040517f08c379a000000000000000000000000000000000000000000000000000000000815260040161288a906155c3565b60405180910390fd5b82601a54146128a45782601a819055505b81601b54146128b55781601b819055505b80601c54146128c65780601c819055505b505050565b60195481565b60606128db610fd1565b821061291c576040517f08c379a000000000000000000000000000000000000000000000000000000000815260040161291390615563565b60405180910390fd5b6011805461292990615a6a565b80601f016020809104026020016040519081016040528092919081815260200182805461295590615a6a565b80156129a25780601f10612977576101008083540402835291602001916129a2565b820191906000526020600020905b81548152906001019060200180831161298557829003601f168201915b50505050509050919050565b6000600c54905090565b6000600560008473ffffffffffffffffffffffffffffffffffffffff1673ffffffffffffffffffffffffffffffffffffffff16815260200190815260200160002060008373ffffffffffffffffffffffffffffffffffffffff1673ffffffffffffffffffffffffffffffffffffffff16815260200190815260200160002060009054906101000a900460ff16905092915050565b612a54610c8a565b73ffffffffffffffffffffffffffffffffffffffff16612a72611be7565b73ffffffffffffffffffffffffffffffffffffffff1614612ac8576040517f08c379a0000000000000000000000000000000000000000000000000000000008152600401612abf906155c3565b60405180910390fd5b600073ffffffffffffffffffffffffffffffffffffffff168173ffffffffffffffffffffffffffffffffffffffff161415612b38576040517f08c379a0000000000000000000000000000000000000000000000000000000008152600401612b2f90615363565b60405180910390fd5b612b4181613179565b50565b60007f80ac58cd000000000000000000000000000000000000000000000000000000007bffffffffffffffffffffffffffffffffffffffffffffffffffffffff1916827bffffffffffffffffffffffffffffffffffffffffffffffffffffffff19161480612c0f57507f5b5e139f000000000000000000000000000000000000000000000000000000007bffffffffffffffffffffffffffffffffffffffffffffffffffffffff1916827bffffffffffffffffffffffffffffffffffffffffffffffffffffffff1916145b80612c1f5750612c1e82613466565b5b9050919050565b60008073ffffffffffffffffffffffffffffffffffffffff166002600084815260200190815260200160002060009054906101000a900473ffffffffffffffffffffffffffffffffffffffff1673ffffffffffffffffffffffffffffffffffffffff1614159050919050565b816004600083815260200190815260200160002060006101000a81548173ffffffffffffffffffffffffffffffffffffffff021916908373ffffffffffffffffffffffffffffffffffffffff160217905550808273ffffffffffffffffffffffffffffffffffffffff16612d05836117a3565b73ffffffffffffffffffffffffffffffffffffffff167f8c5be1e5ebec7d5bd14f71427d1e84f3dd0314c0f7b2291e5b200ac8c7c3b92560405160405180910390a45050565b80471015612d8e576040517f08c379a0000000000000000000000000000000000000000000000000000000008152600401612d8590615443565b60405180910390fd5b60008273ffffffffffffffffffffffffffffffffffffffff1682604051612db490615174565b60006040518083038185875af1925050503d8060008114612df1576040519150601f19603f3d011682016040523d82523d6000602084013e612df6565b606091505b5050905080612e3a576040517f08c379a0000000000000000000000000000000000000000000000000000000008152600401612e3190615423565b60405180910390fd5b505050565b6000612e4a82612c26565b612e89576040517f08c379a0000000000000000000000000000000000000000000000000000000008152600401612e8090615463565b60405180910390fd5b6000612e94836117a3565b90508073ffffffffffffffffffffffffffffffffffffffff168473ffffffffffffffffffffffffffffffffffffffff161480612f0357508373ffffffffffffffffffffffffffffffffffffffff16612eeb84610d9e565b73ffffffffffffffffffffffffffffffffffffffff16145b80612f145750612f1381856129b8565b5b91505092915050565b8273ffffffffffffffffffffffffffffffffffffffff16612f3d826117a3565b73ffffffffffffffffffffffffffffffffffffffff1614612f93576040517f08c379a0000000000000000000000000000000000000000000000000000000008152600401612f8a906155e3565b60405180910390fd5b600073ffffffffffffffffffffffffffffffffffffffff168273ffffffffffffffffffffffffffffffffffffffff161415613003576040517f08c379a0000000000000000000000000000000000000000000000000000000008152600401612ffa906153e3565b60405180910390fd5b61300e8383836134d0565b613019600082612c92565b6001600360008573ffffffffffffffffffffffffffffffffffffffff1673ffffffffffffffffffffffffffffffffffffffff16815260200190815260200160002060008282546130699190615938565b925050819055506001600360008473ffffffffffffffffffffffffffffffffffffffff1673ffffffffffffffffffffffffffffffffffffffff16815260200190815260200160002060008282546130c09190615857565b92505081905550816002600083815260200190815260200160002060006101000a81548173ffffffffffffffffffffffffffffffffffffffff021916908373ffffffffffffffffffffffffffffffffffffffff160217905550808273ffffffffffffffffffffffffffffffffffffffff168473ffffffffffffffffffffffffffffffffffffffff167fddf252ad1be2c89b69c2b068fc378daa952ba7f163c4a11628f55a4df523b3ef60405160405180910390a4505050565b6000600a60009054906101000a900473ffffffffffffffffffffffffffffffffffffffff16905081600a60006101000a81548173ffffffffffffffffffffffffffffffffffffffff021916908373ffffffffffffffffffffffffffffffffffffffff1602179055508173ffffffffffffffffffffffffffffffffffffffff168173ffffffffffffffffffffffffffffffffffffffff167f8be0079c531659141344cd1fd0a4f28419497f9722a3daafe3b4186f6b6457e060405160405180910390a35050565b6132598282604051806020016040528060008152506135e4565b5050565b613268848484612f1d565b6132748484848461363f565b6132b3576040517f08c379a00000000000000000000000000000000000000000000000000000000081526004016132aa90615343565b60405180910390fd5b50505050565b60606000821415613301576040518060400160405280600181526020017f30000000000000000000000000000000000000000000000000000000000000008152509050613461565b600082905060005b6000821461333357808061331c90615a9c565b915050600a8261332c91906158ad565b9150613309565b60008167ffffffffffffffff811115613375577f4e487b7100000000000000000000000000000000000000000000000000000000600052604160045260246000fd5b6040519080825280601f01601f1916602001820160405280156133a75781602001600182028036833780820191505090505b5090505b6000851461345a576001826133c09190615938565b9150600a856133cf9190615ae5565b60306133db9190615857565b60f81b818381518110613417577f4e487b7100000000000000000000000000000000000000000000000000000000600052603260045260246000fd5b60200101907effffffffffffffffffffffffffffffffffffffffffffffffffffffffffffff1916908160001a905350600a8561345391906158ad565b94506133ab565b8093505050505b919050565b60007f01ffc9a7000000000000000000000000000000000000000000000000000000007bffffffffffffffffffffffffffffffffffffffffffffffffffffffff1916827bffffffffffffffffffffffffffffffffffffffffffffffffffffffff1916149050919050565b6134db8383836137d6565b600073ffffffffffffffffffffffffffffffffffffffff168373ffffffffffffffffffffffffffffffffffffffff16141561351e57613519816137db565b61355d565b8173ffffffffffffffffffffffffffffffffffffffff168373ffffffffffffffffffffffffffffffffffffffff161461355c5761355b8382613824565b5b5b600073ffffffffffffffffffffffffffffffffffffffff168273ffffffffffffffffffffffffffffffffffffffff1614156135a05761359b81613991565b6135df565b8273ffffffffffffffffffffffffffffffffffffffff168273ffffffffffffffffffffffffffffffffffffffff16146135de576135dd8282613ad4565b5b5b505050565b6135ee8383613b53565b6135fb600084848461363f565b61363a576040517f08c379a000000000000000000000000000000000000000000000000000000000815260040161363190615343565b60405180910390fd5b505050565b60006136608473ffffffffffffffffffffffffffffffffffffffff16613d21565b156137c9578373ffffffffffffffffffffffffffffffffffffffff1663150b7a02613689610c8a565b8786866040518563ffffffff1660e01b81526004016136ab94939291906151cd565b602060405180830381600087803b1580156136c557600080fd5b505af19250505080156136f657506040513d601f19601f820116820180604052508101906136f391906141f5565b60015b613779573d8060008114613726576040519150601f19603f3d011682016040523d82523d6000602084013e61372b565b606091505b50600081511415613771576040517f08c379a000000000000000000000000000000000000000000000000000000000815260040161376890615343565b60405180910390fd5b805181602001fd5b63150b7a0260e01b7bffffffffffffffffffffffffffffffffffffffffffffffffffffffff1916817bffffffffffffffffffffffffffffffffffffffffffffffffffffffff1916149150506137ce565b600190505b949350505050565b505050565b6008805490506009600083815260200190815260200160002081905550600881908060018154018082558091505060019003906000526020600020016000909190919091505550565b6000600161383184611924565b61383b9190615938565b9050600060076000848152602001908152602001600020549050818114613920576000600660008673ffffffffffffffffffffffffffffffffffffffff1673ffffffffffffffffffffffffffffffffffffffff168152602001908152602001600020600084815260200190815260200160002054905080600660008773ffffffffffffffffffffffffffffffffffffffff1673ffffffffffffffffffffffffffffffffffffffff168152602001908152602001600020600084815260200190815260200160002081905550816007600083815260200190815260200160002081905550505b6007600084815260200190815260200160002060009055600660008573ffffffffffffffffffffffffffffffffffffffff1673ffffffffffffffffffffffffffffffffffffffff16815260200190815260200160002060008381526020019081526020016000206000905550505050565b600060016008805490506139a59190615938565b90506000600960008481526020019081526020016000205490506000600883815481106139fb577f4e487b7100000000000000000000000000000000000000000000000000000000600052603260045260246000fd5b906000526020600020015490508060088381548110613a43577f4e487b7100000000000000000000000000000000000000000000000000000000600052603260045260246000fd5b906000526020600020018190555081600960008381526020019081526020016000208190555060096000858152602001908152602001600020600090556008805480613ab8577f4e487b7100000000000000000000000000000000000000000000000000000000600052603160045260246000fd5b6001900381819060005260206000200160009055905550505050565b6000613adf83611924565b905081600660008573ffffffffffffffffffffffffffffffffffffffff1673ffffffffffffffffffffffffffffffffffffffff168152602001908152602001600020600083815260200190815260200160002081905550806007600084815260200190815260200160002081905550505050565b600073ffffffffffffffffffffffffffffffffffffffff168273ffffffffffffffffffffffffffffffffffffffff161415613bc3576040517f08c379a0000000000000000000000000000000000000000000000000000000008152600401613bba90615583565b60405180910390fd5b613bcc81612c26565b15613c0c576040517f08c379a0000000000000000000000000000000000000000000000000000000008152600401613c0390615383565b60405180910390fd5b613c18600083836134d0565b6001600360008473ffffffffffffffffffffffffffffffffffffffff1673ffffffffffffffffffffffffffffffffffffffff1681526020019081526020016000206000828254613c689190615857565b92505081905550816002600083815260200190815260200160002060006101000a81548173ffffffffffffffffffffffffffffffffffffffff021916908373ffffffffffffffffffffffffffffffffffffffff160217905550808273ffffffffffffffffffffffffffffffffffffffff16600073ffffffffffffffffffffffffffffffffffffffff167fddf252ad1be2c89b69c2b068fc378daa952ba7f163c4a11628f55a4df523b3ef60405160405180910390a45050565b600080823b905060008111915050919050565b828054613d4090615a6a565b90600052602060002090601f016020900481019282613d625760008555613da9565b82601f10613d7b57805160ff1916838001178555613da9565b82800160010185558215613da9579182015b82811115613da8578251825591602001919060010190613d8d565b5b509050613db69190613dba565b5090565b5b80821115613dd3576000816000905550600101613dbb565b5090565b6000613dea613de58461572f565b6156fe565b90508083825260208201905082856020860282011115613e0957600080fd5b60005b85811015613e395781613e1f8882613ebf565b845260208401935060208301925050600181019050613e0c565b5050509392505050565b6000613e56613e518461575b565b6156fe565b905082815260208101848484011115613e6e57600080fd5b613e79848285615a28565b509392505050565b6000613e94613e8f8461578b565b6156fe565b905082815260208101848484011115613eac57600080fd5b613eb7848285615a28565b509392505050565b600081359050613ece81615be3565b92915050565b600081359050613ee381615bfa565b92915050565b600082601f830112613efa57600080fd5b8135613f0a848260208601613dd7565b91505092915050565b600081359050613f2281615c11565b92915050565b600081359050613f3781615c28565b92915050565b600081519050613f4c81615c28565b92915050565b600082601f830112613f6357600080fd5b8135613f73848260208601613e43565b91505092915050565b600082601f830112613f8d57600080fd5b8135613f9d848260208601613e81565b91505092915050565b600081359050613fb581615c3f565b92915050565b600060208284031215613fcd57600080fd5b6000613fdb84828501613ebf565b91505092915050565b600060208284031215613ff657600080fd5b600061400484828501613ed4565b91505092915050565b6000806040838503121561402057600080fd5b600061402e85828601613ebf565b925050602061403f85828601613ebf565b9150509250929050565b60008060006060848603121561405e57600080fd5b600061406c86828701613ebf565b935050602061407d86828701613ebf565b925050604061408e86828701613fa6565b9150509250925092565b600080600080608085870312156140ae57600080fd5b60006140bc87828801613ebf565b94505060206140cd87828801613ebf565b93505060406140de87828801613fa6565b925050606085013567ffffffffffffffff8111156140fb57600080fd5b61410787828801613f52565b91505092959194509250565b6000806040838503121561412657600080fd5b600061413485828601613ebf565b925050602061414585828601613f13565b9150509250929050565b6000806040838503121561416257600080fd5b600061417085828601613ebf565b925050602061418185828601613fa6565b9150509250929050565b60006020828403121561419d57600080fd5b600082013567ffffffffffffffff8111156141b757600080fd5b6141c384828501613ee9565b91505092915050565b6000602082840312156141de57600080fd5b60006141ec84828501613f28565b91505092915050565b60006020828403121561420757600080fd5b600061421584828501613f3d565b91505092915050565b60006020828403121561423057600080fd5b600082013567ffffffffffffffff81111561424a57600080fd5b61425684828501613f7c565b91505092915050565b60006020828403121561427157600080fd5b600061427f84828501613fa6565b91505092915050565b6000806040838503121561429b57600080fd5b60006142a985828601613fa6565b92505060206142ba85828601613ebf565b9150509250929050565b6000806000606084860312156142d957600080fd5b60006142e786828701613fa6565b93505060206142f886828701613fa6565b925050604061430986828701613fa6565b9150509250925092565b6000806000806080858703121561432957600080fd5b600061433787828801613fa6565b945050602061434887828801613fa6565b935050604061435987828801613fa6565b925050606061436a87828801613fa6565b91505092959194509250565b60006143828383615127565b60208301905092915050565b614397816159f2565b82525050565b6143a68161596c565b82525050565b60006143b7826157e0565b6143c1818561580e565b93506143cc836157bb565b8060005b838110156143fd5781516143e48882614376565b97506143ef83615801565b9250506001810190506143d0565b5085935050505092915050565b61441381615990565b82525050565b6000614424826157eb565b61442e818561581f565b935061443e818560208601615a37565b61444781615bd2565b840191505092915050565b600061445d826157f6565b614467818561583b565b9350614477818560208601615a37565b61448081615bd2565b840191505092915050565b6000614496826157f6565b6144a0818561584c565b93506144b0818560208601615a37565b80840191505092915050565b600081546144c981615a6a565b6144d3818661583b565b945060018216600081146144ee576001811461450057614533565b60ff1983168652602086019350614533565b614509856157cb565b60005b8381101561452b5781548189015260018201915060208101905061450c565b808801955050505b50505092915050565b6000815461454981615a6a565b614553818661584c565b9450600182166000811461456e576001811461457f576145b2565b60ff198316865281860193506145b2565b614588856157cb565b60005b838110156145aa5781548189015260018201915060208101905061458b565b838801955050505b50505092915050565b60006145c8600e8361583b565b91507f4578636565647320737570706c790000000000000000000000000000000000006000830152602082019050919050565b6000614608600b8361583b565b91507f53616c65207061757365640000000000000000000000000000000000000000006000830152602082019050919050565b600061464860188361583b565b91507f53616c6520686173206e6f7420737461727465642079657400000000000000006000830152602082019050919050565b6000614688602b8361583b565b91507f455243373231456e756d657261626c653a206f776e657220696e646578206f7560008301527f74206f6620626f756e64730000000000000000000000000000000000000000006020830152604082019050919050565b60006146ee60328361583b565b91507f4552433732313a207472616e7366657220746f206e6f6e20455243373231526560008301527f63656976657220696d706c656d656e74657200000000000000000000000000006020830152604082019050919050565b600061475460268361583b565b91507f4f776e61626c653a206e6577206f776e657220697320746865207a65726f206160008301527f64647265737300000000000000000000000000000000000000000000000000006020830152604082019050919050565b60006147ba601c8361583b565b91507f4552433732313a20746f6b656e20616c7265616479206d696e746564000000006000830152602082019050919050565b60006147fa60268361583b565b91507f5061796d656e7453706c69747465723a206163636f756e7420686173206e6f2060008301527f73686172657300000000000000000000000000000000000000000000000000006020830152604082019050919050565b6000614860602e8361583b565b91507f53706563696669656420737570706c79206973206c6f776572207468616e206360008301527f757272656e742062616c616e63650000000000000000000000000000000000006020830152604082019050919050565b60006148c660248361583b565b91507f4552433732313a207472616e7366657220746f20746865207a65726f2061646460008301527f72657373000000000000000000000000000000000000000000000000000000006020830152604082019050919050565b600061492c60198361583b565b91507f4552433732313a20617070726f766520746f2063616c6c6572000000000000006000830152602082019050919050565b600061496c603a8361583b565b91507f416464726573733a20756e61626c6520746f2073656e642076616c75652c207260008301527f6563697069656e74206d617920686176652072657665727465640000000000006020830152604082019050919050565b60006149d2601d8361583b565b91507f416464726573733a20696e73756666696369656e742062616c616e63650000006000830152602082019050919050565b6000614a12602c8361583b565b91507f4552433732313a206f70657261746f7220717565727920666f72206e6f6e657860008301527f697374656e7420746f6b656e00000000000000000000000000000000000000006020830152604082019050919050565b6000614a78602b8361583b565b91507f5061796d656e7453706c69747465723a206163636f756e74206973206e6f742060008301527f647565207061796d656e740000000000000000000000000000000000000000006020830152604082019050919050565b6000614ade602b8361583b565b91507f53706563696669656420737570706c792069732067726561746572207468616e60008301527f206d617820737570706c790000000000000000000000000000000000000000006020830152604082019050919050565b6000614b4460388361583b565b91507f4552433732313a20617070726f76652063616c6c6572206973206e6f74206f7760008301527f6e6572206e6f7220617070726f76656420666f7220616c6c00000000000000006020830152604082019050919050565b6000614baa602a8361583b565b91507f4552433732313a2062616c616e636520717565727920666f7220746865207a6560008301527f726f2061646472657373000000000000000000000000000000000000000000006020830152604082019050919050565b6000614c1060298361583b565b91507f4552433732313a206f776e657220717565727920666f72206e6f6e657869737460008301527f656e7420746f6b656e00000000000000000000000000000000000000000000006020830152604082019050919050565b6000614c76600d8361583b565b91507f4f7264657220746f6f20626967000000000000000000000000000000000000006000830152602082019050919050565b6000614cb6600f8361583b565b91507f446f6e27742062652067726565647900000000000000000000000000000000006000830152602082019050919050565b6000614cf6600a8361583b565b91507f496e76616c6964204944000000000000000000000000000000000000000000006000830152602082019050919050565b6000614d3660208361583b565b91507f4552433732313a206d696e7420746f20746865207a65726f20616464726573736000830152602082019050919050565b6000614d76602c8361583b565b91507f4552433732313a20617070726f76656420717565727920666f72206e6f6e657860008301527f697374656e7420746f6b656e00000000000000000000000000000000000000006020830152604082019050919050565b6000614ddc60058361584c565b91507f2e6a736f6e0000000000000000000000000000000000000000000000000000006000830152600582019050919050565b6000614e1c60208361583b565b91507f4f776e61626c653a2063616c6c6572206973206e6f7420746865206f776e65726000830152602082019050919050565b6000614e5c60298361583b565b91507f4552433732313a207472616e73666572206f6620746f6b656e2074686174206960008301527f73206e6f74206f776e00000000000000000000000000000000000000000000006020830152604082019050919050565b6000614ec2602f8361583b565b91507f4552433732314d657461646174613a2055524920717565727920666f72206e6f60008301527f6e6578697374656e7420746f6b656e00000000000000000000000000000000006020830152604082019050919050565b6000614f2860218361583b565b91507f4552433732313a20617070726f76616c20746f2063757272656e74206f776e6560008301527f72000000000000000000000000000000000000000000000000000000000000006020830152604082019050919050565b6000614f8e60198361583b565b91507f57616c6c6574206973206e6f742077686974656c6973746564000000000000006000830152602082019050919050565b6000614fce60198361583b565b91507f45746865722073656e74206973206e6f7420636f7272656374000000000000006000830152602082019050919050565b600061500e60168361583b565b91507f4c6963656e736520616c7265616479206c6f636b6564000000000000000000006000830152602082019050919050565b600061504e600083615830565b9150600082019050919050565b600061506860318361583b565b91507f4552433732313a207472616e736665722063616c6c6572206973206e6f74206f60008301527f776e6572206e6f7220617070726f7665640000000000000000000000000000006020830152604082019050919050565b60006150ce602c8361583b565b91507f455243373231456e756d657261626c653a20676c6f62616c20696e646578206f60008301527f7574206f6620626f756e647300000000000000000000000000000000000000006020830152604082019050919050565b615130816159e8565b82525050565b61513f816159e8565b82525050565b6000615151828561453c565b915061515d828461448b565b915061516882614dcf565b91508190509392505050565b600061517f82615041565b9150819050919050565b600060208201905061519e600083018461439d565b92915050565b60006040820190506151b9600083018561438e565b6151c66020830184615136565b9392505050565b60006080820190506151e2600083018761439d565b6151ef602083018661439d565b6151fc6040830185615136565b818103606083015261520e8184614419565b905095945050505050565b600060408201905061522e600083018561439d565b61523b6020830184615136565b9392505050565b6000602082019050818103600083015261525c81846143ac565b905092915050565b6000602082019050615279600083018461440a565b92915050565b600060208201905081810360008301526152998184614452565b905092915050565b600060208201905081810360008301526152bb81846144bc565b905092915050565b600060208201905081810360008301526152dc816145bb565b9050919050565b600060208201905081810360008301526152fc816145fb565b9050919050565b6000602082019050818103600083015261531c8161463b565b9050919050565b6000602082019050818103600083015261533c8161467b565b9050919050565b6000602082019050818103600083015261535c816146e1565b9050919050565b6000602082019050818103600083015261537c81614747565b9050919050565b6000602082019050818103600083015261539c816147ad565b9050919050565b600060208201905081810360008301526153bc816147ed565b9050919050565b600060208201905081810360008301526153dc81614853565b9050919050565b600060208201905081810360008301526153fc816148b9565b9050919050565b6000602082019050818103600083015261541c8161491f565b9050919050565b6000602082019050818103600083015261543c8161495f565b9050919050565b6000602082019050818103600083015261545c816149c5565b9050919050565b6000602082019050818103600083015261547c81614a05565b9050919050565b6000602082019050818103600083015261549c81614a6b565b9050919050565b600060208201905081810360008301526154bc81614ad1565b9050919050565b600060208201905081810360008301526154dc81614b37565b9050919050565b600060208201905081810360008301526154fc81614b9d565b9050919050565b6000602082019050818103600083015261551c81614c03565b9050919050565b6000602082019050818103600083015261553c81614c69565b9050919050565b6000602082019050818103600083015261555c81614ca9565b9050919050565b6000602082019050818103600083015261557c81614ce9565b9050919050565b6000602082019050818103600083015261559c81614d29565b9050919050565b600060208201905081810360008301526155bc81614d69565b9050919050565b600060208201905081810360008301526155dc81614e0f565b9050919050565b600060208201905081810360008301526155fc81614e4f565b9050919050565b6000602082019050818103600083015261561c81614eb5565b9050919050565b6000602082019050818103600083015261563c81614f1b565b9050919050565b6000602082019050818103600083015261565c81614f81565b9050919050565b6000602082019050818103600083015261567c81614fc1565b9050919050565b6000602082019050818103600083015261569c81615001565b9050919050565b600060208201905081810360008301526156bc8161505b565b9050919050565b600060208201905081810360008301526156dc816150c1565b9050919050565b60006020820190506156f86000830184615136565b92915050565b6000604051905081810181811067ffffffffffffffff8211171561572557615724615ba3565b5b8060405250919050565b600067ffffffffffffffff82111561574a57615749615ba3565b5b602082029050602081019050919050565b600067ffffffffffffffff82111561577657615775615ba3565b5b601f19601f8301169050602081019050919050565b600067ffffffffffffffff8211156157a6576157a5615ba3565b5b601f19601f8301169050602081019050919050565b6000819050602082019050919050565b60008190508160005260206000209050919050565b600081519050919050565b600081519050919050565b600081519050919050565b6000602082019050919050565b600082825260208201905092915050565b600082825260208201905092915050565b600081905092915050565b600082825260208201905092915050565b600081905092915050565b6000615862826159e8565b915061586d836159e8565b9250827fffffffffffffffffffffffffffffffffffffffffffffffffffffffffffffffff038211156158a2576158a1615b16565b5b828201905092915050565b60006158b8826159e8565b91506158c3836159e8565b9250826158d3576158d2615b45565b5b828204905092915050565b60006158e9826159e8565b91506158f4836159e8565b9250817fffffffffffffffffffffffffffffffffffffffffffffffffffffffffffffffff048311821515161561592d5761592c615b16565b5b828202905092915050565b6000615943826159e8565b915061594e836159e8565b92508282101561596157615960615b16565b5b828203905092915050565b6000615977826159c8565b9050919050565b6000615989826159c8565b9050919050565b60008115159050919050565b60007fffffffff0000000000000000000000000000000000000000000000000000000082169050919050565b600073ffffffffffffffffffffffffffffffffffffffff82169050919050565b6000819050919050565b60006159fd82615a04565b9050919050565b6000615a0f82615a16565b9050919050565b6000615a21826159c8565b9050919050565b82818337600083830152505050565b60005b83811015615a55578082015181840152602081019050615a3a565b83811115615a64576000848401525b50505050565b60006002820490506001821680615a8257607f821691505b60208210811415615a9657615a95615b74565b5b50919050565b6000615aa7826159e8565b91507fffffffffffffffffffffffffffffffffffffffffffffffffffffffffffffffff821415615ada57615ad9615b16565b5b600182019050919050565b6000615af0826159e8565b9150615afb836159e8565b925082615b0b57615b0a615b45565b5b828206905092915050565b7f4e487b7100000000000000000000000000000000000000000000000000000000600052601160045260246000fd5b7f4e487b7100000000000000000000000000000000000000000000000000000000600052601260045260246000fd5b7f4e487b7100000000000000000000000000000000000000000000000000000000600052602260045260246000fd5b7f4e487b7100000000000000000000000000000000000000000000000000000000600052604160045260246000fd5b6000601f19601f8301169050919050565b615bec8161596c565b8114615bf757600080fd5b50565b615c038161597e565b8114615c0e57600080fd5b50565b615c1a81615990565b8114615c2557600080fd5b50565b615c318161599c565b8114615c3c57600080fd5b50565b615c48816159e8565b8114615c5357600080fd5b5056fea2646970667358221220d992f87cdbce303d8bf2f2347020cf46584d162e7a78aa5b0ebd1e8a682b58cc64736f6c63430008000033687474703a2f2f676972616666657361747468656261722e636f6d2f6d657461646174612e7068703f746f6b656e49443d",
  "linkReferences": {},
  "deployedLinkReferences": {}
}